:0300000002004CAF
:100008000000E2FBEAF2802C0000E0FBEAF080242A
:10001800E6B50202EBF62200E2B50202EBF222009C
:10002800E0B50202EBF02230F6E0A88220F5D3EA30
:10003800C6F582228B822230F6E6A88220F5D98086
:01004800CFE8
:0300A5000200490D
:030049000201278A
:1000A800C28C758CB8758A00C28DD28C308DFDC219
:1000B8008CC28D22AF82C2998F9910990280FB223F
:1000C800AD82AE83AFF07C007B00EB2DF8E43EF907
:1000D8008F02888289838AF012022762047A08ECE8
:1000E80030E708EC2CF96301078003EC2CF989044C
:1000F800DAED0BBB050040D28C82227F00E5802020
:10010800E6027F01E58020E703430702E59020E34C
:1001180003430704E59020E4034307088F82227510
:1001280008A575095A750A01750B00750C00750D3F
:10013800007F007E00C2AF7580FF7590FFC292C23B
:100148009153877F758921758BFD758DFD75985045
:10015800D28EC007C006120103AD82D006D0078D2B
:10016800048D0EC007C006C005C004120103AA8290
:10017800D004D005D006D007750F00EAB504048A6C
:10018800038002AB0E8A048B0EEDF4FAEB5202EBFD
:10019800FD30E3097F007E00750F038022EA30E21C
:1001A800067F027E038012EA30E1067F017E03802B
:1001B80008EA30E0047F047E03EE60038F0F1EE53B
:1001C8000B04F50B850F0C90000875F040C007C0B4
:1001D80006C005C0041200C8E582D004D005D006C8
:1001E800D007F50D7B00EB2408F98782C007C0060D
:1001F800C005C004C0031200BCD003D004D005D091
:1002080006D0070BBB060040DDC007C006C005C00E
:0F021800041200A8D004D005D006D00702016B55
:06007B00E478FFF6D8FD59
:100059007900E94400601B7A00900247780175A095
:1000690000E493F2A308B8000205A0D9F4DAF27506
:02007900A0FFE6
:100081007800E84400600A790175A000E4F309D81A
:10009100FC7800E84400600C7900900001E4F0A3D2
:0400A100D8FCD9FAB4
:0D004C0075810F120243E582600302004936
:1002270020F71430F6148883A88220F507E6A88300
:1002370075830022E280F7E49322E0227582002290
:00000001FF
